{
  "_format": "hh-sol-artifact-1",
  "contractName": "NGOFund",
  "sourceName": "contracts/NGOFund.sol",
  "abi": [
    {
      "anonymous": false,
      "inputs": [
        {
          "indexed": true,
          "internalType": "address",
          "name": "donor",
          "type": "address"
        },
        {
          "indexed": true,
          "internalType": "string",
          "name": "ngoId",
          "type": "string"
        },
        {
          "indexed": false,
          "internalType": "uint256",
          "name": "amount",
          "type": "uint256"
        },
        {
          "indexed": false,
          "internalType": "uint256",
          "name": "timestamp",
          "type": "uint256"
        }
      ],
      "name": "DonationMade",
      "type": "event"
    },
    {
      "anonymous": false,
      "inputs": [
        {
          "indexed": true,
          "internalType": "string",
          "name": "mongoId",
          "type": "string"
        },
        {
          "indexed": false,
          "internalType": "string",
          "name": "name",
          "type": "string"
        },
        {
          "indexed": true,
          "internalType": "address",
          "name": "wallet",
          "type": "address"
        }
      ],
      "name": "NGORegistered",
      "type": "event"
    },
    {
      "inputs": [
        {
          "internalType": "string",
          "name": "_ngoId",
          "type": "string"
        },
        {
          "internalType": "string",
          "name": "_message",
          "type": "string"
        }
      ],
      "name": "donate",
      "outputs": [],
      "stateMutability": "payable",
      "type": "function"
    },
    {
      "inputs": [
        {
          "internalType": "uint256",
          "name": "",
          "type": "uint256"
        }
      ],
      "name": "donations",
      "outputs": [
        {
          "internalType": "address",
          "name": "donor",
          "type": "address"
        },
        {
          "internalType": "string",
          "name": "ngoId",
          "type": "string"
        },
        {
          "internalType": "uint256",
          "name": "amount",
          "type": "uint256"
        },
        {
          "internalType": "uint256",
          "name": "timestamp",
          "type": "uint256"
        },
        {
          "internalType": "string",
          "name": "message",
          "type": "string"
        }
      ],
      "stateMutability": "view",
      "type": "function"
    },
    {
      "inputs": [],
      "name": "getDonationCount",
      "outputs": [
        {
          "internalType": "uint256",
          "name": "",
          "type": "uint256"
        }
      ],
      "stateMutability": "view",
      "type": "function"
    },
    {
      "inputs": [
        {
          "internalType": "string",
          "name": "",
          "type": "string"
        }
      ],
      "name": "ngos",
      "outputs": [
        {
          "internalType": "string",
          "name": "mongoId",
          "type": "string"
        },
        {
          "internalType": "string",
          "name": "name",
          "type": "string"
        },
        {
          "internalType": "address",
          "name": "wallet",
          "type": "address"
        },
        {
          "internalType": "bool",
          "name": "isRegistered",
          "type": "bool"
        }
      ],
      "stateMutability": "view",
      "type": "function"
    },
    {
      "inputs": [
        {
          "internalType": "string",
          "name": "_mongoId",
          "type": "string"
        },
        {
          "internalType": "string",
          "name": "_name",
          "type": "string"
        },
        {
          "internalType": "address",
          "name": "_wallet",
          "type": "address"
        }
      ],
      "name": "registerNGO",
      "outputs": [],
      "stateMutability": "nonpayable",
      "type": "function"
    }
  ],
  "bytecode": "0x608060405234801561001057600080fd5b506114a2806100206000396000f3fe60806040526004361061004a5760003560e01c80631653441c1461004f578063b481dbc21461006b578063e2227035146100ab578063e55a62a8146100d4578063f8626af8146100ff575b600080fd5b61006960048036038101906100649190610ad4565b610140565b005b34801561007757600080fd5b50610092600480360381019061008d9190610b4c565b61043f565b6040516100a29493929190610c70565b60405180910390f35b3480156100b757600080fd5b506100d260048036038101906100cd9190610cef565b6105c2565b005b3480156100e057600080fd5b506100e96107f7565b6040516100f69190610d93565b60405180910390f35b34801561010b57600080fd5b5061012660048036038101906101219190610dda565b610804565b604051610137959493929190610e07565b60405180910390f35b60003411610183576040517f08c379a000000000000000000000000000000000000000000000000000000000815260040161017a90610eda565b60405180910390fd5b6000826040516101939190610f36565b908152602001604051809103902060020160149054906101000a900460ff166101f1576040517f08c379a00000000000000000000000000000000000000000000000000000000081526004016101e890610f99565b60405180910390fd5b60016040518060a001604052803373ffffffffffffffffffffffffffffffffffffffff16815260200184815260200134815260200142815260200183815250908060018154018082558091505060019003906000526020600020906005020160009091909190915060008201518160000160006101000a81548173ffffffffffffffffffffffffffffffffffffffff021916908373ffffffffffffffffffffffffffffffffffffffff16021790555060208201518160010190816102b591906111c5565b50604082015181600201556060820151816003015560808201518160040190816102df91906111c5565b505050600080836040516102f39190610f36565b908152602001604051809103902060020160009054906101000a900473ffffffffffffffffffffffffffffffffffffffff16905060008173ffffffffffffffffffffffffffffffffffffffff163460405161034d906112c8565b60006040518083038185875af1925050503d806000811461038a576040519150601f19603f3d011682016040523d82523d6000602084013e61038f565b606091505b50509050806103d3576040517f08c379a00000000000000000000000000000000000000000000000000000000081526004016103ca90611329565b60405180910390fd5b836040516103e19190610f36565b60405180910390203373ffffffffffffffffffffffffffffffffffffffff167f71399051bc95e34c2315bbb2c6cf0df79957a51b6d385f9dd26fc1a33c6926b13442604051610431929190611349565b60405180910390a350505050565b60008180516020810182018051848252602083016020850120818352809550505050505060009150905080600001805461047890610fe8565b80601f01602080910402602001604051908101604052809291908181526020018280546104a490610fe8565b80156104f15780601f106104c6576101008083540402835291602001916104f1565b820191906000526020600020905b8154815290600101906020018083116104d457829003601f168201915b50505050509080600101805461050690610fe8565b80601f016020809104026020016040519081016040528092919081815260200182805461053290610fe8565b801561057f5780601f106105545761010080835404028352916020019161057f565b820191906000526020600020905b81548152906001019060200180831161056257829003601f168201915b5050505050908060020160009054906101000a900473ffffffffffffffffffffffffffffffffffffffff16908060020160149054906101000a900460ff16905084565b6000836040516105d29190610f36565b908152602001604051809103902060020160149054906101000a900460ff1615610631576040517f08c379a0000000000000000000000000000000000000000000000000000000008152600401610628906113be565b60405180910390fd5b600073ffffffffffffffffffffffffffffffffffffffff168173ffffffffffffffffffffffffffffffffffffffff16036106a0576040517f08c379a00000000000000000000000000000000000000000000000000000000081526004016106979061142a565b60405180910390fd5b60405180608001604052808481526020018381526020018273ffffffffffffffffffffffffffffffffffffffff168152602001600115158152506000846040516106ea9190610f36565b9081526020016040518091039020600082015181600001908161070d91906111c5565b50602082015181600101908161072391906111c5565b5060408201518160020160006101000a81548173ffffffffffffffffffffffffffffffffffffffff021916908373ffffffffffffffffffffffffffffffffffffffff16021790555060608201518160020160146101000a81548160ff0219169083151502179055509050508073ffffffffffffffffffffffffffffffffffffffff16836040516107b39190610f36565b60405180910390207fb0f0477d96bee1b1bb80b90fe81a774fdc718fa3ea9d4761ea57cca6e65a6d29846040516107ea919061144a565b60405180910390a3505050565b6000600180549050905090565b6001818154811061081457600080fd5b90600052602060002090600502016000915090508060000160009054906101000a900473ffffffffffffffffffffffffffffffffffffffff169080600101805461085d90610fe8565b80601f016020809104026020016040519081016040528092919081815260200182805461088990610fe8565b80156108d65780601f106108ab576101008083540402835291602001916108d6565b820191906000526020600020905b8154815290600101906020018083116108b957829003601f168201915b5050505050908060020154908060030154908060040180546108f790610fe8565b80601f016020809104026020016040519081016040528092919081815260200182805461092390610fe8565b80156109705780601f1061094557610100808354040283529160200191610970565b820191906000526020600020905b81548152906001019060200180831161095357829003601f168201915b5050505050905085565b6000604051905090565b600080fd5b600080fd5b600080fd5b600080fd5b6000601f19601f8301169050919050565b7f4e487b7100000000000000000000000000000000000000000000000000000000600052604160045260246000fd5b6109e182610998565b810181811067ffffffffffffffff82111715610a00576109ff6109a9565b5b80604052505050565b6000610a1361097a565b9050610a1f82826109d8565b919050565b600067ffffffffffffffff821115610a3f57610a3e6109a9565b5b610a4882610998565b9050602081019050919050565b82818337600083830152505050565b6000610a77610a7284610a24565b610a09565b905082815260208101848484011115610a9357610a92610993565b5b610a9e848285610a55565b509392505050565b600082601f830112610abb57610aba61098e565b5b8135610acb848260208601610a64565b91505092915050565b60008060408385031215610aeb57610aea610984565b5b600083013567ffffffffffffffff811115610b0957610b08610989565b5b610b1585828601610aa6565b925050602083013567ffffffffffffffff811115610b3657610b35610989565b5b610b4285828601610aa6565b9150509250929050565b600060208284031215610b6257610b61610984565b5b600082013567ffffffffffffffff811115610b8057610b7f610989565b5b610b8c84828501610aa6565b91505092915050565b600081519050919050565b600082825260208201905092915050565b60005b83811015610bcf578082015181840152602081019050610bb4565b60008484015250505050565b6000610be682610b95565b610bf08185610ba0565b9350610c00818560208601610bb1565b610c0981610998565b840191505092915050565b600073ffffffffffffffffffffffffffffffffffffffff82169050919050565b6000610c3f82610c14565b9050919050565b610c4f81610c34565b82525050565b60008115159050919050565b610c6a81610c55565b82525050565b60006080820190508181036000830152610c8a8187610bdb565b90508181036020830152610c9e8186610bdb565b9050610cad6040830185610c46565b610cba6060830184610c61565b95945050505050565b610ccc81610c34565b8114610cd757600080fd5b50565b600081359050610ce981610cc3565b92915050565b600080600060608486031215610d0857610d07610984565b5b600084013567ffffffffffffffff811115610d2657610d25610989565b5b610d3286828701610aa6565b935050602084013567ffffffffffffffff811115610d5357610d52610989565b5b610d5f86828701610aa6565b9250506040610d7086828701610cda565b9150509250925092565b6000819050919050565b610d8d81610d7a565b82525050565b6000602082019050610da86000830184610d84565b92915050565b610db781610d7a565b8114610dc257600080fd5b50565b600081359050610dd481610dae565b92915050565b600060208284031215610df057610def610984565b5b6000610dfe84828501610dc5565b91505092915050565b600060a082019050610e1c6000830188610c46565b8181036020830152610e2e8187610bdb565b9050610e3d6040830186610d84565b610e4a6060830185610d84565b8181036080830152610e5c8184610bdb565b90509695505050505050565b7f446f6e6174696f6e20616d6f756e74206d75737420626520677265617465722060008201527f7468616e20300000000000000000000000000000000000000000000000000000602082015250565b6000610ec4602683610ba0565b9150610ecf82610e68565b604082019050919050565b60006020820190508181036000830152610ef381610eb7565b9050919050565b600081905092915050565b6000610f1082610b95565b610f1a8185610efa565b9350610f2a818560208601610bb1565b80840191505092915050565b6000610f428284610f05565b915081905092915050565b7f4e474f206e6f742072656769737465726564206f6e20626c6f636b636861696e600082015250565b6000610f83602083610ba0565b9150610f8e82610f4d565b602082019050919050565b60006020820190508181036000830152610fb281610f76565b9050919050565b7f4e487b7100000000000000000000000000000000000000000000000000000000600052602260045260246000fd5b6000600282049050600182168061100057607f821691505b60208210810361101357611012610fb9565b5b50919050565b60008190508160005260206000209050919050565b60006020601f8301049050919050565b600082821b905092915050565b60006008830261107b7fffffffffffffffffffffffffffffffffffffffffffffffffffffffffffffffff8261103e565b611085868361103e565b95508019841693508086168417925050509392505050565b6000819050919050565b60006110c26110bd6110b884610d7a565b61109d565b610d7a565b9050919050565b6000819050919050565b6110dc836110a7565b6110f06110e8826110c9565b84845461104b565b825550505050565b600090565b6111056110f8565b6111108184846110d3565b505050565b5b81811015611134576111296000826110fd565b600181019050611116565b5050565b601f8211156111795761114a81611019565b6111538461102e565b81016020851015611162578190505b61117661116e8561102e565b830182611115565b50505b505050565b600082821c905092915050565b600061119c6000198460080261117e565b1980831691505092915050565b60006111b5838361118b565b9150826002028217905092915050565b6111ce82610b95565b67ffffffffffffffff8111156111e7576111e66109a9565b5b6111f18254610fe8565b6111fc828285611138565b600060209050601f83116001811461122f576000841561121d578287015190505b61122785826111a9565b86555061128f565b601f19841661123d86611019565b60005b8281101561126557848901518255600182019150602085019450602081019050611240565b86831015611282578489015161127e601f89168261118b565b8355505b6001600288020188555050505b505050505050565b600081905092915050565b50565b60006112b2600083611297565b91506112bd826112a2565b600082019050919050565b60006112d3826112a5565b9150819050919050565b7f4661696c656420746f2073656e6420457468657220746f204e474f0000000000600082015250565b6000611313601b83610ba0565b915061131e826112dd565b602082019050919050565b6000602082019050818103600083015261134281611306565b9050919050565b600060408201905061135e6000830185610d84565b61136b6020830184610d84565b9392505050565b7f4e474f20616c7265616479207265676973746572656400000000000000000000600082015250565b60006113a8601683610ba0565b91506113b382611372565b602082019050919050565b600060208201905081810360008301526113d78161139b565b9050919050565b7f496e76616c69642077616c6c6574206164647265737300000000000000000000600082015250565b6000611414601683610ba0565b915061141f826113de565b602082019050919050565b6000602082019050818103600083015261144381611407565b9050919050565b600060208201905081810360008301526114648184610bdb565b90509291505056fea2646970667358221220cc253dc9a77cea1277bf0aecd2af049adbf7a03225d3f2b7006e5c40b11eaa7e64736f6c63430008140033",
  "linkReferences": {},
  "deployedLinkReferences": {}
}